:020000040800F2
:10000000E807002035020008B31E0008A719000801
:10001000B11E00082B040008E526000800000000BF
:10002000000000000000000000000000B1200008F7
:100030002D0400080000000093200008B3200008F1
:100040004F0200084F0200084F0200084F0200084C
:100050004F0200084F0200084F0200084F0200083C
:100060004F0200084F0200084F0200084F0200082C
:100070004F0200084F0200084F0200084F0200081C
:100080004F0200084F0200084F0200080000000065
:100090000000000000000000000000004F02000807
:1000A0004F0200084F0200084F0200084F020008EC
:1000B0005D2100084F0200084F0200084F020008AF
:1000C0004F0200084F0200084F0200084F020008CC
:1000D0004F020008D92600084F0200080000000067
:1000E0004F0200084F0200084F0200080000000005
:1000F0000000000000000000000000004F020008A7
:10010000000000004F0200084F0200084F020008E4
:1001100000000000000000000000000000000000DF
:100120004F0200084F0200084F0200084F0200086B
:100130004F02000800000000000000000000000066
:100140000000000000000000000000004F02000856
:100150004F0200084F0200084F0200084F0200083B
:100160004F0200084F0200080000000000000000DD
:10017000000000000000000000000000000000007F
:10018000000000004F020008000000000000000016
:100190004F02000800F002F800F03CF80AA090E8D6
:1001A000000C82448344AAF10107DA4501D100F032
:1001B00031F8AFF2090EBAE80F0013F0010F18BFC3
:1001C000FB1A43F001031847102C0000302C0000EC
:1001D000103A24BF78C878C1FAD8520724BF30C873
:1001E00030C144BF04680C60704700000023002445
:1001F00000250026103A28BF78C1FBD8520728BF37
:1002000030C148BF0B6070471FB502F0DBFA1FBD5D
:1002100010B510BD00F0CFF81146FFF7F5FF02F062
:100220008FFA00F0EDF803B4FFF7F2FF03BC00F023
:10023000F5F800000948804709480047FEE7FEE757
:10024000FEE7FEE7FEE7FEE7FEE7FEE7FEE7FEE786
:1002500004480549054A064B704700004D21000837
:1002600095010008E8010020E8070020E8030020CD
:10027000E803002053EA020C00F069802DE9F04BFE
:100280004FF00006002B1FBFB3FA83F503FA05F405
:1002900024FA05F65E4012BF1643B2FA82F502FA5E
:1002A00005F4C5F120051EBF22FA05FC44EA0C0442
:1002B000203556EA044C4FEA144418BF641C4FF032
:1002C00000084FF00009904271EB030C39D300296C
:1002D00019BFB1FA81F701FA07F6B0FA80F700FA10
:1002E00007F6C7F120071EBF20FA07FC46EA0C06F6
:1002F0002037B6FBF4FCA7EB0507103F07F01F0BF8
:10030000CBF120060CFA0BFB2CFA06F644BFB346E1
:100310000026202FA4BF5E464FF0000B5BEA060CC0
:1003200008BF4FF0010B19EB0B09ABFB027C48EB4C
:100330000608C01B06FB02CC0BFB03CC71EB0C01C7
:10034000C1E70B46024641464846BDE8F08B13B56F
:100350004FF000004FF00001AFF30080BDE81C40FB
:1003600070474FF0000200B5134694469646203978
:1003700022BFA0E80C50A0E80C50B1F12001BFF45E
:10038000F7AF090728BFA0E80C5048BF0CC05DF8C4
:1003900004EB890028BF40F8042B08BF704748BF12
:1003A00020F8022B11F0804F18BF00F8012B704786
:1003B000704770477047754600F02CF8AE46050050
:1003C0006946534620F00700854618B020B5FFF770
:1003D0003FFFBDE820404FF000064FF000074FF010
:1003E00000084FF0000B21F00701AC46ACE8C00953
:1003F000ACE8C009ACE8C009ACE8C0098D4670475C
:1004000010B50446AFF300802046BDE81040FFF76A
:100410000ABF0000004870478801002001491820E9
:10042000ABBEFEE7260002007047FEE7704700B54E
:1004300002464FF47A7302E0184600F003F8521EA9
:10044000FAD200BD542148434FF0E021486100201A
:100450008861052008610869C003FCD50420086193
:10046000704772B6FEE72DE9F0410446876D00F053
:100470004FF9064694F835000025022806D0802062
:10048000606584F834500120BDE8F081206801687F
:1004900021F0160101602068416921F0800141616D
:1004A000206C08B9A06C20B12068016821F0080117
:1004B00001602068016821F0010101600CE000F09A
:1004C00027F9801B052807D920206065032084F8C0
:1004D000350084F83450D7E720680068C007EED1B3
:1004E00094F85C103F208840B860012084F8350003
:1004F00084F834500020C7E790F83510022903D063
:100500008021416501207047052180F83510006881
:10051000016821F001010160002070472DE9F84FCA
:10052000DFF8B8A10022012403254FF00F090AF1DA
:10053000040BAAF1040E00BF0B6804FA02F6334064
:10054000B34273D10F7907F00307012F01D0022FB7
:1005500016D187684FEA420805FA08FC27EA0C071B
:10056000D1F80CC00CFA08FC4CEA070CC0F808C023
:100570004768B7430E79C6F3001696403E4346607F
:100580000E79F643B6070DD0C768560005FA06FC8B
:1005900027EA0C07D1F808C00CFA06FC4CEA070C55
:1005A000C0F80CC00E7906F00306022E10D1D60852
:1005B00000EB8608D8F8206057074FEAD76C09FA95
:1005C0000CF7BE430F6907FA0CF73743C8F82070E1
:1005D00006684FEA420C05FA0CF7BE430F7907F0A4
:1005E000030707FA0CF7374307604E6816F4403FDD
:1005F0006DD03B4E376847F480473760366822F04D
:10060000030706F480460096364E07EB060CDCF82E
:10061000086897073F0F09FA07F826EA0806DFF887
:10062000C880404503D14FF000081EE04FE0DFF8DE
:10063000BC80404502D14FF0010816E0DFF8B080E1
:10064000404502D14FF002080FE0DFF8A880404596
:1006500002D14FF0030808E0DFF89C80404502D14A
:100660004FF0040801E04FF0070808FA07F848EADD
:100670000608CCF80888DAF800605746D1F804C0BC
:100680009E435FEACC2C00D51E433E60DBF8006041
:100690005F46D1F804C09E435FEA8C2C00D51E4310
:1006A0003E60DEF800607746D1F804C09E435FEA02
:1006B0008C3C00D51E433E60084F083F3E68D1F891
:1006C00004C09E435FEACC3C00D51E433E60521CF2
:1006D000102AFFF431AFBDE8F88F0000083C01405C
:1006E0004438024000300140000002400004024053
:1006F00000080240000C024000100240006908405F
:1007000000D0012070470AB1816170470904FBE7FE
:100710000148806870470000080000200248816896
:100720000278114481607047080000200B4810B522
:10073000016841F400710160016841F48061016069
:10074000016841F480710160032000F06FF800201F
:1007500000F006F800F024F8002010BD003C024034
:1007600070B50D4D04464FF47A712878B1FBF0F066
:100770000A490968B1FBF0F000F00AFB48B9102CF7
:1007800007D200222146501E00F030F800206C6095
:1007900070BD012070BD0000080000201400002082
:1007A0000A4808B5016841F480410160006800F41E
:1007B000804000900548001F016841F080510160B1
:1007C000006800F08050009008BD000044380240EE
:1007D000002809DB00F01F02012191404009800040
:1007E00000F1E020C0F8001170470000F0B40E4B9B
:1007F0001B680C46C3F30223C3F10705042D00D97F
:100800000425191D072901D2002300E0DB1E012663
:1008100006FA05F1491E214099409E40761E164079
:100820003143F0BC01F07CBF0CED00E0064900F064
:10083000070208684FF6FF03184040EA0220034A07
:1008400010430860704700000CED00E00000FA055E
:100850002DE9F0470E46050065D0DFF81481D8F881
:100860000000F7B200F00700B04207D288F800702D
:10087000D8F8000000F00700B04254D128683D4C81
:10088000810712D5400703D5206840F4E05020606E
:100890002878000703D5206840F460402060206875
:1008A000A96820F0F000084320602878C0072DD008
:1008B000304968680839012812D0022813D003286B
:1008C00011D00968890700292DDA216821F0030178
:1008D00001432160FFF71CFF814641F2883A0EE098
:1008E00009688903EFE709688901ECE7FFF710FF62
:1008F000A0EB0901514502D90320BDE8F08720682B
:10090000696800F00C00B0EB810FEFD1D8F800104F
:10091000404601F00701B14207D90770006800F0B6
:100920000700B04201D00120E7E72878400705D54D
:100930002068E96820F4E050084320602878000728
:1009400006D52068296920F4604040EAC100206093
:1009500000F038F82168084AC1F30311515CC8401F
:100960000649086006480068FFF7FAFE0020C4E761
:10097000003C024008380240BE2D00081400002050
:100980000C0000200448054900680968044AC1F3C6
:100990008221515CC8407047140000200838024092
:1009A000CE2D00080448054900680968044AC1F3CF
:1009B0004231515CC84070471400002008380240A2
:1009C000CE2D0008154810B5006810F00C02144830
:1009D00013D04110042A0FD0082A0ED10F4C241F27
:1009E0002268236802F03F025B0207D52068C0F34B
:1009F0008810A0FB010106E0084610BD2168C1F384
:100A00008811A1FB00010023FFF734FC2168C1F32A
:100A10000141491C4900B0FBF1F010BD083802400B
:100A20000024F4002DE9F84F04006ED02078DFF8A0
:100A30004C93C007A9F104054AD009F104000168EC
:100A4000C1F38101012908D00068C0F381000228A8
:100A50000AD1D9F80000400206D52868800337D5AE
:100A600060680028E1D033E06068B0F5803F10D0C6
:100A7000B0F5A02F286810D020F4803028602868B6
:100A800020F4802028606068A8B1FFF741FE064688
:100A90000DE0286840F48030F4E740F480202860BE
:100AA000F7E700BFFFF734FE801B642873D828687F
:100AB0008003F7D50CE0FFF72BFE064605E000BFEC
:100AC000FFF726FE801B6428F0D828688003F7D43F
:100AD0002078DFF8AC8280074FF0000A3ED5A748A7
:100AE000001D016811F00C0F08D00068C0F38100F0
:100AF00002280BD1D9F80000400207D428688007EB
:100B000016D5E068012800D112E033E1E068B8B101
:100B10000120C8F80000FFF7FBFD064605E000BF16
:100B2000FFF7F6FD801B0228C0D828688007F7D59C
:100B30002868216920F0F80040EAC10028600DE033
:100B4000C8F800A0FFF7E4FD064604E0FFF7E0FD6B
:100B5000801B02281FD828688007F7D42078000758
:100B600022D5864F87486169703771B101210160D4
:100B7000FFF7CEFD064604E0FFF7CAFD801B022802
:100B800009D838688007F7D50EE0C0F800A0FFF755
:100B9000BFFD064605E082E0FFF7BAFD801B022894
:100BA0007DD838688007F7D42078400768D5DFF80B
:100BB000CCB100270BF13C0BDBF80000C0000BD4DC
:100BC000DBF8001041F08051CBF80010DBF800009A
:100BD000012700F0805000906B4E3068C00510D4A3
:100BE000306840F480703060FFF792FD009005E0BF
:100BF000FFF78EFD0099401A022850D83068C005D2
:100C0000F6D55E4EA0686C3601280FD005283068F6
:100C100010D020F001003060306820F00400306017
:100C2000A068B8B1FFF774FD00900FE0306840F0A5
:100C30000100F4E740F004003060F7E7FFF768FDDB
:100C40000099411A41F28830814266D830688007A5
:100C5000F4D50EE0FFF75CFD009007E0FFF758FDCC
:100C60000099411A41F28830814256D83068800795
:100C7000F4D42FB1DBF8001021F08051CBF8001034
:100C8000A069C8B33D49091D0968C1F38101022962
:100C90004AD00228504607D0C8F8600000E03CE087
:100CA000FFF736FD04463BE04746C8F86000FFF713
:100CB0002FFD064605E000BFFFF72AFD801B022836
:100CC0002BD828688001F7D4D4E907010843A16A2A
:100CD0002E4A490802EB0141626A41EA8211084347
:100CE00094F82C1040EA0161C9F800100120386620
:100CF000FFF70EFD044606E03EE000BFFFF708FDEB
:100D0000001B022809D828688001F7D534E000BF0D
:100D1000FFF7FEFC001B022802D90320BDE8F88F74
:100D200028688001F4D427E00128F7D0D9F8000022
:100D3000E26900F4800191421CD1226A00F03F0177
:100D4000914217D147F6C071626A0140B1EB821F30
:100D500010D1A26A4FF0FF3300F4403103EB52028E
:100D6000B1EB024F06D194F82C1000F07060B0EB9C
:100D7000016F01D00120D1E70020CFE70438024005
:100D800000004742800E4742007000400000FFFF15
:100D900010B5401EB0F1807F01D3012010BD4FF08F
:100DA000E02460610F21601701F0BAFC0020A0610F
:100DB00007202061002010BD7047704770B590F883
:100DC0003C20012A2CD0012480F83C40022280F8EB
:100DD0003D2003685A689D6822F070060A68324315
:100DE0005A60104B02689A420ED0B2F1804F0BD07D
:100DF0000D4B9A4208D00D4B9A4205D00C4B9A42AB
:100E000002D00C4B9A4204D1496825F08003194363
:100E1000916080F83D40002180F83C10084670BD8C
:100E2000022070BD000001400004004000080040A6
:100E3000000C00400040014010B5040003D094F8BD
:100E40003D0010B107E0012010BD002084F83C00F7
:100E5000204600F01FF8022084F83D00211D206884
:100E600001F082F9012084F8460084F83E0084F8FD
:100E70003F0084F8400084F8410084F8420084F880
:100E8000430084F8440084F8450084F83D000020C5
:100E900010BD000010B586B0044614216846FFF767
:100EA00060FA226800211C48B2F1804F0CD01B4927
:100EB0008A4207D1016841F002010160006800F038
:100EC0000200059006B010BD026842F00102026007
:100ED000006800F0010005900F481038026842F0E9
:100EE00001020260006800F00100059003200090FC
:100EF0000220CDE901010120CDE90310694608482F
:100F0000FFF70CFB002211461C20FFF76FFC1C2092
:100F1000FFF75EFCD6E700004038024000040040C6
:100F20000000024070B5044690F83C0000250128FE
:100F300017D0012684F83C60022084F83D00206828
:100F4000826822F0770222F47F428260086850288B
:100F500038D00DDC20284FD005DC90B3102811D1FB
:100F60004AE0022070BD302846D040280AD13BE03C
:100F700060282FD070280DD0B0F5805F03D0B0F579
:100F8000005F12D0012584F83D60002084F83C0009
:100F9000284670BDCB68D1E90121206801F041F9F4
:100FA0002068816841F0770109E0CB68D1E901212F
:100FB000206801F036F92068816841F48041816041
:100FC000E1E719E0CA684968206801F0DFF95021BB
:100FD000206806E0CA684968206801F01FFA6021AD
:100FE000206801F028F9CEE7CA684968206801F056
:100FF000CDF940212068F4E7226801461046F0E769
:1010000010B50168B1F1804F0DD1017F01290AD1DE
:10101000002100F090FA81B20C480022C180437890
:1010200013B18180427010BD8388CB1AB3F57A6FFB
:1010300003DD02700122427005E0054C027824F8BD
:101040001230521C0270818010BD00000000002090
:10105000580000202DE9F041054690F83C0000269C
:101060000C46012810D0012085F83C0072B1042AFA
:101070001CD0082A2CD00C2A50D00126002085F83C
:101080003C003046BDE8F0810220FBE7D4E90012C5
:10109000E368286801F08CF92868816921F00C0167
:1010A000816128688169A26811430FE0D4E90012C8
:1010B000E368286801F0C4F92868816921F4406177
:1010C000816128688169A26841EA02218161D5E7CE
:1010D0002868D4E9002C277B036A016A21F4807117
:1010E0000162C16923F4206321F0030141EA0C018C
:1010F00021F0F00C39074FF420674CEA116107EA40
:1011000002221A43C16102622868C16921F00C0100
:10111000C1612868C169A26811432BE02868D4E93D
:101120000021E768036AD0F820C02CF4805CC0F886
:1011300020C0D0F81CC023F420432CF4407C4CEA9F
:10114000012121F4704C4FF6FF7101EA07314FF491
:10115000204741EA0C0107EA02321A43C1610262E8
:101160002868C16921F44061C1612868C169A26829
:1011700041EA0221C16181E710B5040003D094F86F
:101180003D0010B107E0012010BD002084F83C00B4
:10119000204600F01EF8022084F83D00211D206842
:1011A00000F0E2FF012084F8460084F83E0084F855
:1011B0003F0084F8400084F8410084F8420084F83D
:1011C000430084F8440084F8450084F83D00002082
:1011D00010BD70472DE9F04104460068C6680569F6
:1011E0004FF00007A90713D5B10711D5F91E01610A
:1011F00001202077206880698007204602D0FFF711
:10120000FFFE04E000F0A8F8204600F03AF9277746
:10121000680716D5700714D521686FF004000861BF
:10122000022020772068806910F4407F204602D099
:10123000FFF7E6FE04E000F08FF8204600F021F909
:101240002777280715D5300713D521686FF00800D8
:101250000861042020772068C0698007204602D0FA
:10126000FFF7CEFE04E000F077F8204600F009F921
:101270002777E80616D5F00614D521686FF0100020
:101280000861082020772068C06910F4407F20465C
:1012900002D0FFF7B5FE04E000F05EF8204600F053
:1012A000F0F82777E80708D0F00706D021686FF03C
:1012B00001000861204600F03DF9280608D53006F7
:1012C00006D521686FF0800008612046FFF774FDA5
:1012D000680608D5700606D521686FF040000861E1
:1012E000204600F03DF9A8060AD5B00608D52168C9
:1012F0006FF0200008612046BDE8F041FFF75DBDBA
:10130000BDE8F08110B586B0044614216846FFF7A9
:1013100028F80E492068884215D10D48002102683E
:1013200042F004020260006800F0040005904FF4EF
:10133000707000900220CDE90101CDE903106946EB
:101340000448FFF7EBF806B010BD000000040040B1
:101350003038024000080240704770B5044690F8EB
:101360003C0000260D4601280FD0012084F83C00E7
:101370006AB1042A1DD0082A2FD00C2A3FD001269A
:10138000002084F83C00304670BD022070BD20680B
:1013900000F05AFF2068816941F0080181612068EE
:1013A000816921F004018161206881692A69114302
:1013B00011E0206800F070FF2068816941F400614D
:1013C00081612068816921F480618161206881697F
:1013D0002A6941EA02218161D2E7206800F088FF92
:1013E0002068C16941F00801C1612068C16921F02C
:1013F0000401C1612068C1692A69114311E02068B4
:1014000000F0A2FF2068C16941F40061C161206859
:10141000C16921F48061C1612068C1692A6941EA1A
:101420000221C161ACE710B5040003D094F83D007F
:1014300010B107E0012010BD002084F83C002046D8
:1014400000F01EF8022084F83D00211D206800F005
:101450008BFE012084F8460084F83E0084F83F00AB
:1014600084F8400084F8410084F8420084F8430086
:1014700084F8440084F8450084F83D00002010BD45
:101480007047704710B50446022249B104290ED0B6
:10149000082913D094F84100012816D0012010BD6E
:1014A00094F83E000128F9D184F83E200FE094F82A
:1014B0003F000128F2D184F83F2008E094F8400072
:1014C0000128EBD184F8402001E084F8412001227A
:1014D000206800F099FE12492068884203D1426CCE
:1014E00042F400424264206888420ED0B0F1804F3E
:1014F0000BD00C49884208D00B49884205D00B49D3
:10150000884202D00A49884204D1816801F007016B
:10151000062903D0016841F001010160002010BDDF
:10152000000001400004004000080040000C0040A2
:101530000040014070470246002041B1042909D013
:1015400008290AD00C2901D11068006C7047106876
:10155000406B70471068806B70471068C06B7047B5
:10156000704718B5034690F84200202801D00220A9
:1015700018BD61B15AB101201863002058631846A4
:1015800001F08EF80028F3D1196B012901D0012058
:1015900018BD19680A684968009119680C3151E84A
:1015A000002F42F0100241E80024002CF5D118BDB4
:1015B00070477047F8B5016804460868CA684B6907
:1015C00010F00F0F4FF0000559D003F0010602F4A0
:1015D0009077374365D0C10705D0D10503D5616C3D
:1015E00041F001016164410705D5D90703D0616C61
:1015F00041F002016164810705D5D90703D0616C10
:1016000041F004016164010707D502F02001314374
:1016100003D0616C41F008016164616C00293AD02B
:10162000800604D5900602D5204600F052FF2068BF
:101630004069616CC0F38010090700D460B3204694
:1016400000F020FF20684069400621D52068143052
:1016500050E8001F21F0400140E80012002AF5D1B7
:10166000E06BA8B172490165E06BFEF745FF002809
:1016700011D0E06B016D01B0BDE8F0400847830672
:101680000FD593060DD52046BDE8F84000F021BFE8
:101690002046FFF78EFFF8BD2046FFF78AFF6564FE
:1016A000F8BD266B2023012E7ED1C6067CD5D6063A
:1016B0007AD508684868009048694FF002064006ED
:1016C0004DD5E26B106840684FF480770004000C41
:1016D0003AD0A18D814237D9E085D069B8422DD06A
:1016E00020680C3050E8001F21F4807140E800129F
:1016F000002AF5D12068143050E8001F21F00101C4
:1017000040E80012002AF5D12068143050E8001F8C
:1017100021F0400140E80012002AF5D184F842305F
:10172000256320680C3050E8001F21F0100140E8CC
:101730000012002AF5D1E06BFEF795FE6663A08DDE
:10174000E18D401A81B206E0A18D8142A8D1D06915
:10175000B842A5D166632046FFF72AFFF8BDA08DE9
:10176000E18D401A81B2E08D0028F7D00029F5D034
:1017700020680C3050E8002F22F4907240E80027D7
:10178000002FF5D12068143050E8002F22F001021C
:1017900040E80027002FF5D184F842302563206807
:1017A0000C3050E8002F00E006E022F0100240E884
:1017B0000023002BF3D1CDE705062BD5150629D53F
:1017C00094F841002128C9D1A068B0F5805F01D10B
:1017D0002069B0B1206A411C21622168007848600C
:1017E000E08C401E0004000CE084B7D12068C16882
:1017F00021F08001C1602068C16841F04001C160F2
:10180000F8BD206A0088C0F308004860206A801C88
:101810002062E5E74006F3D55006F1D5CA682046B8
:1018200022F04002CA6084F8413000F0A9F8F8BD07
:101830007724000870B5040004D094F84100002516
:1018400010B106E0012070BD84F84050204600F041
:1018500023F8242084F841002068C16821F4005155
:10186000C160204600F096FE2068016921F4904195
:1018700001612068416921F02A0141612068C16845
:1018800041F40051C1606564202084F8410084F86F
:1018900042006563002070BD30B587B00446142156
:1018A0006846FEF75EFD274D226800202649022388
:1018B0000724AA4226D1244A1432156845F010059F
:1018C0001560126802F0100205920A6842F00202E6
:1018D0000A60096801F002010591C0210091CDE97B
:1018E00001300320CDE9030469461848FEF716FECF
:1018F000002211462520FEF779FF2520FEF768FF1C
:1019000007B030BD124DAA42FAD10F4A1032156805
:1019100045F400351560126802F4003205920A6839
:1019200042F001020A60096801F0010105910C21F1
:101930000091CDE90130CDE9030469460548FEF781
:10194000EDFDDDE7001001403038024000040240A8
:10195000004400400000024000680549884205D16B
:101960000448054942880548FFF7FBBD7047000061
:10197000001001400000002018000020F8000020A6
:10198000704710B5782200211E2000F091F8202227
:1019900001211E2000F08CF800220221BDE8104039
:1019A0001E2000F085B8FEE770B50D46044600F035
:1019B00064F86006000E00F04CF800F019F82846B4
:1019C00000F047F800F014F800F057F8012000EBA1
:1019D0004400C0B200F03DF800F00AF800F01AF838
:1019E0000446012000F02AF800F056F8204670BDA9
:1019F00010B5012000F086FE002000F075FE0120E9
:101A000000F072FE00F046FB0446002000F06CFE81
:101A1000204610BD70B500252C46012000F064FE64
:101A200000F038FB28434006050E002000F05CFE65
:101A3000641CE4B2082CF0D3680870BD10B500F047
:101A400061FE012000F050FEBDE81040002000F0D3
:101A50004BBE70B500240546802626FA04F02840C7
:101A600000F050FE012000F03FFE002000F03CFEA0
:101A7000641CE4B2082CF0D370BD10B5012000F056
:101A800041FE012000F030FE002000F03BFEBDE8EA
:101A90001040002000F028BE10B5002000F032FEFB
:101AA000012000F021FEBDE81040012000F02ABE18
:101AB00070B515460E460446FFF7DFFF6006000EC0
:101AC000FFF7C7FFFFF794FF3046FFF7C2FFFFF7AE
:101AD0008FFF2846FFF7BDFFFFF78AFFBDE8704084
:101AE000FFF7DABF70B50D460446FFF7C6FF600684
:101AF000000EFFF7AEFFFFF77BFF2846FFF7A9FFB9
:101B0000FFF776FFBDE87040FFF7C6BF10B50122B2
:101B10006B216820FFF7CCFF00226C216820FFF7C3
:101B2000C7FF042219216820FFF7C2FF02221A21F1
:101B30006820FFF7BDFF00221B216820FFF7B8FFD8
:101B400000221C216820FFF7B3FF00223821BDE8E6
:101B500010406820FFF7ACBF70B504463B216820F9
:101B6000FFF722FF05463C216820FFF71DFF40EAF2
:101B7000052020803D216820FFF716FF05463E2105
:101B80006820FFF711FF40EA052060803F216820B0
:101B9000FFF70AFF054640216820FFF705FF40EAEE
:101BA0000520A08070BD70B5044643216820FFF772
:101BB000FBFE054644216820FFF7F6FE40EA0520BB
:101BC000208045216820FFF7EFFE0546462168206A
:101BD000FFF7EAFE40EA0520608047216820FFF712
:101BE000E3FE054648216820FFF7DEFE40EA0520B7
:101BF000A08070BD1E217720FFF774BF2DE9F04152
:101C000086B014216846FEF7ACFB2E48002401681C
:101C100041F004010160016801F0040105910168CF
:101C200041F080010160016801F0800105910168C7
:101C300041F001010160016801F0010105910168B5
:101C400041F0020101600068DFF87C8000F00200D2
:101C5000059000224FF481514046FEF754FD1B4F82
:101C60004FF4E166002231463846FEF74CFD4FF452
:101C7000005000904FF40410CDE901046946144867
:101C8000FEF74CFC202000900125CDE90154694667
:101C900040460394FEF742FC1120CDE90060022685
:101CA000CDE9024669463846FEF738FC2803CDE9FF
:101CB0000005CDE9024669464046FEF72FFC06B016
:101CC000BDE8F081303802400000024000040240CC
:101CD0000008024010B58AB00024264804940594F8
:101CE00006940794089409940094019402944FF088
:101CF0008041039401605321C0E901144FF6FF7144
:101D0000C0E903148461FFF797F808B1FEF7A9FB57
:101D10004FF48050049004A91648FFF703F908B166
:101D2000FEF79FFB1348FFF727FA08B1FEF799FB70
:101D3000089408A90F480994FFF740F808B1FEF786
:101D400090FB0120CDE90040029400226946094839
:101D50000394FFF77FF908B1FEF783FB042269467D
:101D60000448FFF777F9002801D0FEF77AFB0AB0A4
:101D700010BD00006800002010B58EB0002407944C
:101D8000089409940A940B941C2168460C94FEF75D
:101D9000E8FA2A48284901605321C0E9011444F6B1
:101DA0001F61C0E903148461FFF746F808B1FEF72C
:101DB00058FB4FF48050079007A92048FFF7B2F86E
:101DC00008B1FEF74EFB1D48FFF72DFB08B1FEF7EB
:101DD00048FB0B940BA919480C94FEF7EFFF08B1D0
:101DE000FEF73FFB6020CDE9000402940022694623
:101DF00012480494FFF7B1FA08B1FEF732FB04224F
:101E000069460E48FFF7A9FA08B1FEF72AFB082237
:101E100069460A48FFF7A1FA08B1FEF722FB0C2237
:101E200069460648FFF799FA08B1FEF71AFB03481E
:101E3000FFF768FA0EB010BD00040040B0000020AB
:101E40000C4810B50A4901604FF4E13141600021AE
:101E500081600C22C160C0E904128161C161FFF799
:101E6000E9FC002803D0BDE81040FEF7FABA10BD27
:101E700000100140F80000200C4810B50A4901602C
:101E80004FF4E1314160002181600C22C160C0E962
:101E900004128161C161FFF7CDFC002803D0BDE8C9
:101EA0001040FEF7DEBA10BD0044004040010020A3
:101EB000FEE7FEE72DE9F0410024134E074680259A
:101EC0004FF4806825FA04F23A4041463046FEF766
:101ED0001AFC012208213046FEF715FC00220821D9
:101EE0003046FEF710FC641CE4B2082CEAD3012251
:101EF00008213046FEF707FC3046BDE8F0410022DD
:101F00000821FEF700BC00000004024070B5012269
:101F10000B4D940221462846FEF7F5FB01220821CD
:101F20002846FEF7F0FB002221462846FEF7EBFB91
:101F30002846BDE8704000220821FEF7E4BB0000FF
:101F40000004024070B50A4D4FF48064002221461F
:101F50002846FEF7D8FB012208212846FEF7D3FBCE
:101F600021462846BDE870400122FEF7CCBB0000A8
:101F7000000402400246012000E05043491EFCD20A
:101F8000704710B50C4640F0B00000F060F810202B
:101F900040EA141000F05BF804F00F00BDE81040B8
:101FA00000F055B82DE9F0410746CE004000083E4C
:101FB000801E15464FF0FF38F1B2C0B2FFF7E1FFC7
:101FC0001148002400EB05152819A0F5805090F861
:101FD000000E00F04DF8641CE4B2082CF4D308EBBA
:101FE0004700F1B2C0B2FFF7CCFF00242819A0F5DA
:101FF000805090F8080E00F03BF8641CE4B2082C06
:10200000F4D3BDE8F0810000CE2700082DE9F047A9
:1020100000241D461646884681460A2713E0291BE0
:102020000A20491EFFF7A6FFB6FBF0F0B0FBF7F160
:1020300007FB110208EB0400C1B248463032FFF73B
:10204000B1FF641CE4B2AC42E9D3BDE8F08710B53F
:102050000446FFF75BFF7820FFF72CFF0020FFF717
:1020600029FF2046FFF726FFBDE81040FFF76ABFB3
:1020700010B50446FFF74AFF7820FFF71BFF40200A
:10208000FFF718FF2046FFF715FFBDE81040FFF7E8
:1020900059BF704710B50A20FEF7D4F9BDE81040CB
:1020A0004FF400710148FEF729BB00000004024014
:1020B0007047FEF733BB000030B593B0302168465F
:1020C000FEF74FF914210CA8FEF74BF91D48002527
:1020D000016841F080510160006800F0805011906B
:1020E0001948016821F4404141F400410160006851
:1020F000022400F44040119001200090000401905F
:102100008001CDE90640042008905420CDE909045F
:1021100007200B906846FEF785FC08B172B6FEE713
:102120000CA90F2081E831004FF48050CDE90F0554
:1021300002210CA8FEF78CFB002801D072B6FEE746
:1021400013B030BD403802400070004002480168C2
:1021500041F470010160704788ED00E00148FFF72D
:1021600039B8000068000020F0B502681F4B204C11
:10217000204D214E4FF0804C984207D0604505D04D
:10218000A04203D0A84201D0B04203D122F0700790
:102190004A683A43984210D060450ED0A0420CD015
:1021A000A8420AD0B04208D0144CA04205D0144C2A
:1021B000A04202D0134CA04203D122F44074CA685A
:1021C00022434C6922F0800222438C68C4620C686E
:1021D0008462984201D109690163016841F00401F8
:1021E0000160012141610260F0BD0000000001407A
:1021F0000004004000080040000C00400040014086
:10220000004401400048014010B501F01F030121C6
:10221000046A99408C430462016A9A401143016246
:1022200010BD10B5846842EA032224F47F440A43B7
:102230002243826010BD826822F070020A4342F09D
:10224000070181607047000030B5036A026A22F01E
:10225000010202624268846924F073050C682C4311
:1022600023F002058B682B430A4DA8420BD123F0C3
:102270000805CB6822F440722B434D6923F0040318
:1022800015438A692A434260846149684163036255
:1022900030BD00000000014030B5026A036A23F03F
:1022A00010030362436884690D6824F4E64444EA39
:1022B00005248D6822F0200242EA05120B4DA84247
:1022C0000ED1CD6822F0800242EA05124D6923F456
:1022D000406343EA85038D6922F0400243EA8503A7
:1022E0004360846149688163026230BD000001403F
:1022F00030B5036A026A22F4807202624268C469DD
:1023000023F4007324F073050C682C438D6843EAB2
:1023100005230C4DA8420ED1CD6823F4006343EA97
:1023200005234D6922F4405242EA05128D6923F4D7
:10233000806342EA05124260C4614968C163036276
:1023400030BD00000000014030B5046A026A22F48A
:10235000805202624268C3690D6823F4E64343EA8F
:1023600005238D6824F4005444EA0534064DA84240
:1023700004D14D6922F4804242EA85124260C36171
:1023800049680164046230BD0000014010B5036A71
:10239000046A24F001040462846924F0F00444EA2D
:1023A000021423F00A020A438461026210BD000095
:1023B00070B5056A046A24F0010404628469124E4F
:1023C000B0420ED0B0F1804F0BD0104EB04208D0CA
:1023D0000F4EB04205D00F4EB04202D00E4EB0426A
:1023E00003D124F00304144301E044F001041A076C
:1023F00024F0F00444EA126225F00A0301F00A0115
:1024000019438261016270BD000001400004004078
:1024100000080040000C00400040014010B5036A75
:10242000046A24F010040462846923F0A00324F4F5
:10243000704444EA023243EA01118261016210BD34
:1024400030B5046A056A25F010050562856925F432
:10245000407545EA022222F470454FF6FF7202EA07
:10246000033224F0A0032A43A02404EA01111943F3
:102470008261016230BD10B5806B0021C185FFF71C
:1024800098F810BD01680C3151E8002F22F49072C9
:1024900041E80023002BF5D10168143151E8002FE9
:1024A00022F0010241E80023002BF5D1016B012944
:1024B00009D101680C3151E8002F22F0100241E8E7
:1024C0000023002BF5D1202180F842100021016368
:1024D000704708B590F84210222901D0022008BDAB
:1024E00082684FF480539A4201D1016921B1816A17
:1024F0009A421BD04AB10AE00268816A5268C2F36C
:1025000008020A80816A891C08E0026972B10268C7
:10251000526802F07F020A70816A491C8162C18D93
:10252000491E0904090CC18503D01BE002685268EA
:10253000F1E70168CA6822F02002CA600168CA682F
:1025400022F48072CA6001684A6922F001024A617D
:10255000202180F8421000214163026B012A03D040
:10256000FFF7FAF9002008BD016301680C3151E85A
:10257000002F22F0100241E80023002BF5D1016862
:102580000A68D20602D50A6849680091818DFFF772
:102590000FF8E7E770B5044600680169E26821F4C6
:1025A0004051114301612169A068E26908436169F2
:1025B000114308432168CA6849F20C639A430243F5
:1025C000CA6020684169A26921F4407111434161E8
:1025D00031492068884202D03049884202D1FEF752
:1025E000E1F901E0FEF7CEF9E26900231921642543
:1025F0003226B2F5004F626828D0A0FB0101930F8C
:102600009200FDF737FE0146B0FBF5F06FF01802BF
:10261000504301EB800006EB0010B0FBF5F000F03A
:10262000F002B1FBF5F002EB0012B1FBF5F06FF038
:102630001803584301EB800006EB0010B0FBF5F0E7
:1026400000F00F0021681044886070BDA0FB0101FC
:1026500092185B41FDF70EFE0146B0FBF5F002015A
:10266000B1FBF5F06FF01803584301EB800006EB67
:10267000C000B0FBF5F000F0F80002EB4002B1FB47
:10268000F5F0584301EB800006EBC000B0FBF5F01D
:1026900000F00700D6E700000010014000140140E0
:1026A00081628285C28500214164222180F8421026
:1026B000016921B10168CA6842F48072CA60016888
:1026C0004A6942F001024A610068C16841F0200194
:1026D000C1600020704700000148FEF76BBF00009A
:1026E000F8000020FEE7000010B502464FF48071AC
:1026F0000348FEF708F8BDE810400A20FDF7A2BE27
:102700000004024010B502464FF400710348FDF783
:10271000FAFFBDE810400A20FDF794BE0004024015
:102720000907090E002804DB00F1E02080F80014FE
:10273000704700F00F0000F1E02080F8141D704792
:102740001FB5FDF7F3FFFFF7B7FCFFF757FAFFF7E9
:1027500093FBFFF775FBFFF70FFBFFF7BBFAFFF7E4
:10276000D5F9FFF747FAFFF70CF900211348FEF7F8
:1027700089FE04211148FEF785FE08210F48FEF767
:1027800081FE0C210D48FEF77DFE0D4801680A6AA6
:1027900022F00A020A620068016A01626846FFF7D5
:1027A00002FA02A8FFF7D8F901231A4619460220B7
:1027B000FFF72CFC6420FDF73AFEEFE7B0000020A5
:1027C000680000204FF04070E1EE100A70470000F2
:1027D00000000000000000000000000000000000F9
:1027E00000F800000000000000333000000000107E
:1027F0000C06100C0600000000000000000040C0A5
:102800007840C0784000043F04043F040400007096
:1028100088FC08300000001820FF211E0000F0088E
:10282000F000E018000000211C031E211E0000F033
:102830000888700000001E2123241927211010167B
:102840000E0000000000000000000000000000007A
:1028500000E01804020000000007182040000002F9
:102860000418E0000000004020180700000040406D
:1028700080F0804040000202010F010202000000CF
:1028800000F0000000000101011F01010100000033
:1028900000000000000080B0700000000000000098
:1028A0000000000000000001010101010101000021
:1028B00000000000000000303000000000000000B8
:1028C000000080601804006018060100000000E0AD
:1028D00010080810E000000F102020100F0000105A
:1028E00010F8000000000020203F202000000070B1
:1028F00008080888700000302824222130000030A9
:102900000888884830000018202020110E000000A0
:10291000C02010F8000000070424243F240000F821
:102920000888880808000019212020110E0000E006
:10293000108888180000000F112020110E000038A8
:102940000808C83808000000003F000000000070C0
:10295000880808887000001C222121221C0000E049
:1029600010080810E0000000312222110F000000C2
:1029700000C0C00000000000003030000000000077
:1029800000800000000000008060000000000000E7
:102990008040201008000001020408102000404080
:1029A00040404040400004040404040404000008C3
:1029B0001020408000000020100804020100007078
:1029C00048080808F0000000003036010000C03060
:1029D000C828E810E0000718272423140B00000083
:1029E000C038E0000000203C23020227382008F80D
:1029F000888888700000203F202020110E00C03001
:102A0000080808083800071820202010080008F8D7
:102A100008080810E000203F202020100F0008F8D0
:102A20008888E8081000203F20202320180008F89C
:102A30008888E8081000203F200003000000C03014
:102A400008080838000007182020221E020008F895
:102A500008000008F808203F210101213F2000085C
:102A600008F8080800000020203F20200000000097
:102A70000808F8080800C08080807F00000008F87F
:102A800088C028180800203F20012638200008F8B8
:102A9000080000000000203F20202020300008F81F
:102AA000F800F8F80800203F003F003F200008F839
:102AB00030C00008F808203F200007183F00E01051
:102AC00008080810E0000F10202020100F0008F860
:102AD00008080808F000203F210101010000E01073
:102AE00008080810E0000F18242438504F0008F898
:102AF000888888887000203F2000030C30200070F8
:102B00008808080838000038202121221C001808F5
:102B100008F8080818000000203F2000000008F80E
:102B200008000008F808001F202020201F00087857
:102B3000880000C83808000007380E010000F808B7
:102B400000F80008F800033C0700073C03000818E1
:102B500068808068180820302C03032C3020083847
:102B6000C800C83808000000203F200000001008FE
:102B70000808C83808002038262120201800000046
:102B800000FE020202000000007F40404000000CF6
:102B900030C000000000000000010638C000000244
:102BA0000202FE000000004040407F0000000000E4
:102BB0000402020204000000000000000000000007
:102BC0000000000000008080808080808080000203
:102BD00002040000000000000000000000000000EF
:102BE0008080808000000019242222223F2008F8E3
:102BF000008080000000003F112020110E00000026
:102C0000008080800000000E1120202011000000B4
:102C100000808088F800000E112020103F20000066
:102C2000808080800000001F22222222130000806A
:102C300080F0888888180020203F202000000000B5
:102C4000808080808000006B94949493600008F8EA
:102C5000008080800000203F210000203F20008075
:102C60009898000000000020203F20200000000075
:102C700000809898000000C08080807F000008F8E5
:102C8000000080808000203F24022D3020000008BA
:102C900008F8000000000020203F20200000808075
:102CA000808080808000203F20003F20003F808087
:102CB000008080800000203F210000203F20000095
:102CC000808080800000001F202020201F00808046
:102CD00000808000000080FFA12020110E00000075
:102CE000008080808000000E112020A0FF80808066
:102CF00080008080800020203F2120000100000013
:102D000080808080800000332424242419000080E7
:102D100080E0808000000000001F202000008080F4
:102D2000000000808000001F202020103F208080B5
:102D300080000080808000010E3008060100808045
:102D40000080008080800F300C030C300F0000806A
:102D50008000808080000020312E0E312000808095
:102D600080000080808080818E70180601000080C5
:102D70008080808080000021302C222130000000E3
:102D80000000807C020200000000003F4040000084
:102D90000000FF00000000000000FF000000000233
:102DA000027C800000000040403F00000000000660
:102DB0000101020204040000000000000000000005
:102DC00000000000000001020304060708090000DB
:102DD0000000010203040000F82D0008000000209C
:102DE00018000000D0010008102E00081800002074
:102DF000D0070000EC0100080001400000000000C6
:102E00000100000010000000000000000024F40099
:040000050800019559
:00000001FF
